:020000040000FA
:1000000060040020F90100001B0200001D02000036
:1000100000000000000000000000000000000000E0
:100020000000000000000000000000001F020000AF
:100030000000000000000000210200002302000078
:100040002502000025020000250200002502000014
:100050002502000025020000250200002502000004
:1000600025020000250200002502000025020000F4
:1000700025020000250200002502000025020000E4
:1000800025020000250200002502000025020000D4
:1000900025020000250200002502000025020000C4
:1000A00025020000250200002502000025020000B4
:1000B00025020000250200002502000025020000A4
:1000C00000F002F800F032F80CA030C8083824180C
:1000D0002D18A246671EAB4654465D46AC4201D180
:1000E00000F024F87E460F3E0FCCB6460126334280
:1000F00000D0FB1AA246AB4633431847D00100009C
:10010000E00100000023002400250026103A01D35E
:1001100078C1FBD8520700D330C100D50B607047BF
:100120001FB5C046C0461FBD10B510BD00F09DF8FC
:100130001146FFF7F5FF00F040F800F0B5F803B402
:10014000FFF7F2FF03BC00F0B9F800002749264A88
:100150004A600A6803235B071A430A60012306E02A
:100160008A68D207FCD08A681A438A60401E012838
:10017000F6D10868012292079043086070471C4836
:100180008168042211438160416907221202914370
:1001900001229202891841611448016882021143C8
:1001A00001600168090A0902016001680322D206A0
:1001B0009143C2028918016070470E4C2068800884
:1001C0008000401C2060FFF7DAFF0125A06840088E
:1001D0004000A060FA20FFF7B9FFA0682843A060A4
:1001E000FA20FFF7B3FFF1E7665600000000014078
:1001F00000020050004000500E480F4901600F49B6
:1002000001600F4901600F4A0F4911600F4A104900
:100210001160002101600F480047FEE7FEE7FEE79E
:10022000FEE7FEE7FEE700000B480C490A4A0C4BCC
:100230007047000000010050590000001600000047
:100240008800000024000050A55A000080030050E0
:100250001F000000C10000006000002060040020BA
:1002600060000020704770477047754600F022F824
:10027000AE46050069465346C008C000854618B022
:1002800020B5FFF7D1FF60BC00274908B64600261D
:10029000C0C5C0C5C0C5C0C5C0C5C0C5C0C5C0C536
:1002A000403D49008D4670470446C046C046204642
:1002B000FFF745FF00487047000000200149182063
:1002C000ABBEFEE72600020070470000DC02000023
:0C02D00000000020600400000401000099
:04000005000001F9FD
:00000001FF
